:020000040800F2
:1000000000500020311A0008E1160008E31600082D
:10001000E5160008E7160008E916000800000000D1
:10002000000000000000000000000000EB160008C7
:10003000ED16000800000000EF160008F116000899
:10004000791A0008791A0008791A0008791A000844
:10005000791A0008791A0008791A0008791A000834
:10006000791A0008791A0008791A0008791A000824
:10007000791A0008791A0008791A0008791A000814
:10008000791A0008791A0008791A0008791A000804
:10009000791A0008791A0008791A0008791A0008F4
:1000A000791A0008791A0008791A0008791A0008E4
:1000B000F9160008791A0008791A0008791A000858
:1000C000791A0008791A0008791A0008791A0008C4
:1000D000791A0008791A0008791A0008791A0008B4
:1000E000791A0008791A0008791A0008000000003F
:1000F0000000000000000000000000000000000000
:0C01000000000000000000005FF808F1A3
:10010C0010B5054C237833B9044B13B10448AFF345
:10011C0000800123237010BD70000020000000003F
:10012C000823000808B5034B1BB103490348AFF380
:10013C00008008BD000000007400002008230008A7
:10014C0010B504460E4B18784FF47A73B3FBF0F3EA
:10015C000C4A1068B0FBF3F000F0A2F868B90F2C51
:10016C0001D901200AE0002221464FF0FF3000F0B7
:10017C0055F8034B5C60002000E0012010BD00BF6F
:10018C00000000200800002008B5074A136843F05F
:10019C0010031360032000F02FF80020FFF7D0FFAE
:1001AC0001F076FA002008BD00200240034A1168D5
:1001BC00034B1B780B441360704700BF9402002064
:1001CC0000000020014B1868704700BF940200200B
:1001DC0038B50446FFF7F6FF0546B4F1FF3F02D0F1
:1001EC00044B1B781C44FFF7EDFF401BA042FAD3D5
:1001FC0038BD00BF00000020074AD36823F4E06339
:10020C001B041B0C000200F4E060184340F0BF60BC
:10021C0040F40030D060704700ED00E030B4174B74
:10022C00DB68C3F30223C3F10704042C28BF0424A6
:10023C001D1D062D18D9033B4FF0FF3505FA04F4AC
:10024C0021EA0401994005FA03F322EA0303194356
:10025C0000280BDB0901C9B200F1604000F56140D8
:10026C0080F8001330BC70470023E5E700F00F0066
:10027C000901C9B2024B1954F4E700BF00ED00E0CC
:10028C0014ED00E0002807DB00F01F0240090123F9
:10029C009340024A42F82030704700BF00E100E072
:1002AC000138B0F1807F0AD2064B5860064AF02123
:1002BC0082F823100020986007221A6070470120F2
:1002CC00704700BF10E000E000ED00E0F0B482B039
:1002DC0000263246A2E0002D5AD0012D00D1CE6866
:1002EC00FF2B69D88446FF2B69D89500DCF80040B9
:1002FC000F27AF4024EA070406FA05F52C43CCF887
:10030C0000404C6814F0805F00F087805F4CA5695A
:10031C0045F00105A561A46904F001040194019C58
:10032C009508AF1C5A4C54F8274002F00307BF0045
:10033C004FF00F0C0CFA07FC24EA0C0C554CA042A5
:10034C0043D004F58064A04200F0818004F5806401
:10035C00A0427ED004F58064A04234D0042435E061
:10036C004D4FBD4214D00BD94C4FBD4210D007F5A8
:10037C008037BD420CD0A7F58017BD42B0D107E045
:10038C00A7F58017BD4203D007F58037BD42A7D132
:10039C008D687DB1012D08D044610826A0E7CE6898
:1003AC0008369DE7CE680C369AE70461082697E775
:1003BC00002695E7042693E700F1040C93E7A2F1DD
:1003CC000805AD0092E7032400E00024BC4044EA99
:1003DC000C0402352E4F47F825404C6814F4803F2E
:1003EC0039D02F4D2C681C432C604C6814F4003F02
:1003FC0037D02B4D6C681C436C604C6814F4801F18
:10040C0035D0274DAC681C43AC604C6814F4001F0D
:10041C0033D0234DEC682343EB6001320B6833FA85
:10042C0002F430D00124944023409C42F5D14D6815
:10043C00122DB7D094D8022DB1D07FF64CAF032D2E
:10044C00B6D0112D7FF44CAFCE68043648E70124AA
:10045C00BCE70224BAE7124D2C6824EA03042C6092
:10046C00C3E70F4D6C6824EA03046C60C5E70C4DC0
:10047C00AC6824EA0304AC60C7E7094DEC6824EAD5
:10048C000303EB60C9E702B0F0BC704700100240F8
:10049C000000014000080140000021100000311054
:1004AC00000401408368194201D1002070470120EB
:1004BC00704712B909040161704701617047C36844
:1004CC0001EA030221EA030141EA0241016170479A
:1004DC0082B0084B1B68084AA2FB03235B0A00FB93
:1004EC0003F0019000BF019B5A1E0192002BF9D121
:1004FC0002B0704708000020D34D6210002800F0B5
:10050C00F58170B582B00446036813F0010F2CD04E
:10051C00AB4B5B6803F00C03042B1DD0A84B5B6842
:10052C0003F00C03082B12D06368B3F5803F41D065
:10053C00002B55D103F1804303F504331A6822F4E0
:10054C0080321A601A6822F480221A6037E09C4BC1
:10055C005B6813F4803FE7D0994B1B6813F4003FA2
:10056C0003D06368002B00F0C381236813F0020FE3
:10057C0076D0934B5B6813F00C0F5FD0904B5B689D
:10058C0003F00C03082B54D02369002B00F08A8055
:10059C008C4B01221A60FFF715FE0546884B1B6831
:1005AC0013F0020F75D1FFF70DFE401B0228F5D991
:1005BC000320A0E1824A136843F48033136063681C
:1005CC0043B3FFF7FFFD05467D4B1B6813F4003F5B
:1005DC00CBD1FFF7F7FD401B6428F5D903208AE146
:1005EC00B3F5A02F09D0764B1A6822F480321A602A
:1005FC001A6822F480221A60E1E703F18043A3F524
:10060C003C331A6842F480221A601A6842F4803231
:10061C001A60D4E7FFF7D6FD0546694B1B6813F447
:10062C00003FA2D0FFF7CEFD401B6428F5D9032074
:10063C0061E1634B5B6813F4803FA5D1604B1B6891
:10064C0013F0020F04D02369012B01D0012052E1D9
:10065C005B4A136823F0F803616943EAC103136032
:10066C00236813F0080F32D0A369002B5BD0564BD4
:10067C0001221A60FFF7A6FD0546514B5B6A13F089
:10068C00020F21D1FFF79EFD401B0228F5D9032054
:10069C0031E14B4A136823F0F803616943EAC10363
:1006AC001360DDE7474B00221A60FFF78BFD054610
:1006BC00434B1B6813F0020FD2D0FFF783FD401B96
:1006CC000228F5D9032016E10120FFF701FF23686A
:1006DC0013F0040F00F09880394BDB6913F0805F46
:1006EC0033D1374BDA6942F08052DA61DB6903F0BF
:1006FC0080530193019B0125344B1B6813F4807FBD
:10070C0025D0E368012B36D0002B4CD103F180436C
:10071C0003F504331A6A22F001021A621A6A22F0F3
:10072C0004021A622CE0284B00221A60FFF74AFDE3
:10073C000546234B5B6A13F0020FC8D0FFF742FD4E
:10074C00401B0228F5D90320D5E00025D4E71F4A29
:10075C00136843F480731360FFF734FD06461B4B9C
:10076C001B6813F4807FCCD1FFF72CFD801B642811
:10077C00F5D90320BFE0124A136A43F00103136258
:10078C00E3687BB3FFF71EFD06460D4B1B6A13F0A7
:10079C00020F38D1FFF716FD801B41F288339842C7
:1007AC00F3D90320A7E0052B12D0054B1A6A22F0CF
:1007BC0001021A621A6A22F004021A62E0E700BF10
:1007CC00001002400000424280044242007000408F
:1007DC004C4B1A6A42F004021A621A6A42F0010285
:1007EC001A62CDE7FFF7EEFC0646464B1B6A13F088
:1007FC00020F08D0FFF7E6FC801B41F288339842C9
:10080C00F3D9032077E0E5B9E369002B72D03D4AB8
:10081C00526802F00C02082A56D0022B17D03A4B21
:10082C0000221A60FFF7CEFC0446364B1B6813F00F
:10083C00007F47D0FFF7C6FC001B0228F5D9032028
:10084C0059E0304AD36923F08053D361DCE72E4B57
:10085C0000221A60FFF7B6FC05462A4B1B6813F002
:10086C00007F06D0FFF7AEFC401B0228F5D9032011
:10087C0041E0236AB3F5803F1AD022494B6823F438
:10088C007413226A606A024313434B601E4B0122AD
:10089C001A60FFF797FC04461A4B1B6813F0007F95
:1008AC000ED1FFF78FFC001B0228F5D9032022E0A4
:1008BC00144A536823F40033A1680B435360DCE7FC
:1008CC00002018E0002016E0012B16D00D4B5B68C1
:1008DC0003F48031226A914201D001200BE003F431
:1008EC007013626A93420AD0012004E00120704721
:1008FC00012000E0002002B070BD0120FBE70020C9
:10090C00F9E700BF001002406000424210B487B00B
:10091C00164C94E80F000DF1180C0CE90F00238A0B
:10092C00ADF80430124B5B6803F00C02082A1AD1A4
:10093C00C3F38342624412F8102C13F4803F05D1A8
:10094C000C4800FB02F007B010BC7047084B5B680A
:10095C00C3F34043634413F8143C074800FB02F014
:10096C00B0FBF3F0EFE70448EDE700BF20230008ED
:10097C000010024000093D0000127A00002800F02F
:10098C00A38070B50446524B1B6803F007038B42DF
:10099C000CD24F4A136823F007030B431360136800
:1009AC0003F007038B4201D0012070BD236813F0C4
:1009BC00020F17D013F0040F04D0464A536843F4C7
:1009CC00E0635360236813F0080F04D0414A536866
:1009DC0043F4605353603F4A536823F0F003A0681C
:1009EC00034353600D46236813F0010F31D0636845
:1009FC00012B20D0022B25D0364A126812F0020FA0
:100A0C0064D034494A6822F0030213434B60FFF769
:100A1C00D9FB06462F4B5B6803F00C036268B3EB03
:100A2C00820F16D0FFF7CEFB801B41F28833984221
:100A3C00F0D90320B9E7274A126812F4003FE0D13D
:100A4C000120B2E7234A126812F0007FD9D10120AD
:100A5C00ABE71F4B1B6803F00703AB420CD91C4AD6
:100A6C00136823F007032B431360136803F0070389
:100A7C00AB4201D0012098E7236813F0040F06D095
:100A8C00144A536823F4E063E1680B435360236812
:100A9C0013F0080F07D00F4A536823F460532169F1
:100AAC0043EAC1035360FFF731FF0A4B5B68C3F3A2
:100ABC000313094AD35CD840084B1860084B1868DC
:100ACC00FFF73EFB002070E70120704701206CE728
:100ADC0000200240001002401435000808000020DD
:100AEC0004000020014B1868704700BF080000206C
:100AFC002DE9F04383B004460F4616461D46FFF71A
:100B0C0061FB0A9B181A00EB0508FFF75BFB81469B
:100B1C002A4B1B68C3F3CB3308FB03F30193236805
:100B2C009B6837EA03030CBF01230023B34240D078
:100B3C00B5F1FF3FF3D0FFF745FBA0EB09004045B3
:100B4C000AD2B8F1000F07D0019B0BB94FF0000887
:100B5C00019B013B0193E2E72268536823F0E00319
:100B6C0053606368B3F5827F0BD0A36AB3F5005F63
:100B7C0014D0012384F85130002384F85030032022
:100B8C0018E0A368B3F5004F02D0B3F5806FECD139
:100B9C002268136823F040031360E6E722681368A9
:100BAC0023F4005313602268136843F4005313605A
:100BBC00DFE7002003B0BDE8F08300BF0800002091
:100BCC0010B582B0044600920B4600228021FFF73C
:100BDC008FFF034610B9184602B010BD636D43F089
:100BEC00200363650323F6E7002856D010B50446AE
:100BFC00436A33B94368B3F5827F05D00023C361E0
:100C0C0002E00023036143610023A36294F8513096
:100C1C00002B3CD0022384F851302268136823F057
:100C2C0040031360636803F48273A26802F4044205
:100C3C001343E26802F400621343226902F00202D9
:100C4C001343626902F001021343A26902F40072B9
:100C5C001343E26902F038021343226A02F0800265
:100C6C001343A26A02F40052216813430B60638B96
:100C7C00226803F0040353602268D36923F40063F1
:100C8C00D36100206065012384F8513010BD84F8D5
:100C9C005030204600F0CAFCBCE7012070472DE91B
:100CAC00F04182B090F85040012C00F0C8801D46F5
:100CBC00174688460446012380F85030FFF782FA25
:100CCC00064694F85130DBB2012B09D002200123E7
:100CDC0084F85130002384F8503002B0BDE8F08124
:100CEC00B8F1000F00F09D80002F00F09C800323D2
:100CFC0084F8513000236365C4F83080A786E786FA
:100D0C00A363A387E38763642364A368B3F5004FED
:100D1C001CD023681A6812F0400F03D11A6842F0F5
:100D2C0040021A60E368B3F5006F1AD063680BB128
:100D3C00012F4ED1226B236812781A73236B013367
:100D4C002363E38E013B9BB2E38642E02268136887
:100D5C0023F0400313602268136843F4804313604C
:100D6C00D7E763680BB1012F15D1226B236812886A
:100D7C00DA60236B02332363E38E013B9BB2E38681
:100D8C0009E0FFF71FFA801BA84202D3B5F1FF3F21
:100D9C004BD1002D4BD0E38E9BB2002B2CD0236873
:100DAC009A6812F0020FECD0226B1288DA60236B77
:100DBC0002332363E38E013B9BB2E386EBE7FFF741
:100DCC0001FA801BA84202D3B5F1FF3F31D1002DAF
:100DDC0031D0E38E9BB27BB123689A6812F0020F7C
:100DEC00EDD0226B12781A73236B01332363E38EDD
:100DFC00013B9BB2E386ECE7324629462046FFF7DF
:100E0C00DFFE08B120236365A36833B9019323681F
:100E1C00DA6801929B680193019B636D6BB90020AA
:100E2C0055E7012053E7012051E703204FE703204A
:100E3C004DE703204BE7032049E7012047E7022059
:100E4C004BE710B4036A046A24F001040462846959
:100E5C0024F0F00444EA021223F00A030B438261EB
:100E6C00036210BC704710B4036A23F010030362D2
:100E7C008469036A24F4704444EA023223F0A00328
:100E8C0043EA01138261036210BC7047836823F04C
:100E9C007003194341F007018160704790F83D30B1
:100EAC00DBB2012B01D001207047022380F83D30CA
:100EBC000268D36843F00103D3600368104A93427D
:100ECC0010D0B3F1804F0DD0A2F59432934209D0DB
:100EDC0002F58062934205D01A6842F001021A6052
:100EEC00002070479A6802F00702062A05D01A689B
:100EFC0042F001021A60002070470020704700BFCA
:100F0C00002C0140704770477047704710B504467D
:100F1C0003681A6912F0020F11D0DA6812F0020F8E
:100F2C000DD06FF002021A610123037703689B69ED
:100F3C0013F0030F70D0FFF7E6FF0023237723682D
:100F4C001A6912F0040F12D0DA6812F0040F0ED0E6
:100F5C006FF004021A610223237723689B6913F450
:100F6C00407F5FD02046FFF7CEFF00232377236816
:100F7C001A6912F0080F12D0DA6812F0080F0ED0AE
:100F8C006FF008021A61042323772368DB6913F0DE
:100F9C00030F4ED02046FFF7B6FF002323772368BC
:100FAC001A6912F0100F12D0DA6812F0100F0ED06E
:100FBC006FF010021A61082323772368DB6913F49E
:100FCC00407F3DD02046FFF79EFF00232377236808
:100FDC001A6912F0010F03D0DA6812F0010F36D142
:100FEC0023681A6912F0800F03D0DA6812F0800FB0
:100FFC0034D123681A6912F0400F03D0DA6812F06A
:10100C00400F32D123681A6912F0200F03D0DA682E
:10101C0012F0200F30D110BDFFF774FF2046FFF700
:10102C0073FF8AE72046FFF76DFF2046FFF76CFF42
:10103C009BE72046FFF766FF2046FFF765FFACE70E
:10104C002046FFF75FFF2046FFF75EFFBDE76FF01E
:10105C0001021A61204600F0E5FBC1E76FF0800247
:10106C001A61204600F023F9C3E76FF040021A61C1
:10107C002046FFF74AFFC5E76FF020021A612046B1
:10108C0000F014F9C7E7000003681B4A90420AD02D
:10109C00B0F1804F07D0A2F59432904203D002F504
:1010AC008062904203D123F070034A681343124AC2
:1010BC0090420AD0B0F1804F07D0A2F59432904202
:1010CC0003D002F58062904203D123F44073CA68C6
:1010DC00134323F080034A69134303608B68C36294
:1010EC000B688362044B984202D001234361704722
:1010FC000B690363F9E700BF002C014038B310B54E
:10110C00044690F83D30EBB1022384F83D30211DAC
:10111C002068FFF7B9FF012384F8463084F83E308D
:10112C0084F83F3084F8403084F8413084F8423001
:10113C0084F8433084F8443084F8453084F83D30EA
:10114C00002010BD80F83C3000F032FBDCE70120C1
:10115C00704710B4846824F47F4442EA03230B43A1
:10116C002343836010BC704790F83C30012B66D051
:10117C0010B50446012380F83C30022380F83D3042
:10118C000268936823F47F4323F0770393600B6822
:10119C00402B4AD013D9602B3DD01ED9702B28D0B0
:1011AC00B3F5005F30D1CB684A6889680068FFF7F7
:1011BC00D0FF2268936843F48043936024E0102BA3
:1011CC0006D004D9202B03D0302B01D01CE0DBB986
:1011DC0019462068FFF75AFE16E0502B14D1CA6846
:1011EC0049680068FFF72DFE50212068FFF74EFE7E
:1011FC000AE0CB684A6889680068FFF7AAFF226892
:10120C00936843F077039360012384F83D3000200A
:10121C0084F83C0010BDCA6849680068FFF723FEDB
:10122C0060212068FFF732FEEEE7CA684968006863
:10123C00FFF707FE40212068FFF728FEE4E70220B5
:10124C007047000090F83C30012B2BD030B40123B8
:10125C0080F83C30022380F83D3003685C689D6860
:10126C0024F070040A6822435A6003680E4A9342C1
:10127C000AD0B3F1804F07D0A2F59432934203D039
:10128C0002F58062934204D125F080054A6815432B
:10129C009D60012380F83D30002380F83C301846D7
:1012AC0030BC704702207047002C014070477047DB
:1012BC0000B585B000230293009101230193022312
:1012CC0003936946FFF702F805B05DF804FB00B51F
:1012DC0085B0002301930293039304AB43F8101DD4
:1012EC001946FEF7F3FF05B05DF804FB38B51A4C50
:1012FC0002212046FFF7DCFF002202212046FFF7E7
:10130C00D8F844F25064154B5D68FFF7EBFB144BB7
:10131C00A3FB0030800C04FB00F4104B5B685B1BE0
:10132C00A342FAD3012202210B48FFF7C2F814247E
:10133C000A4B5D68FFF7D6FB094BA3FB0030800C12
:10134C0004FB00F4054B5B685B1BA342FAD3022140
:10135C000148FFF7BCFF38BD00080140001000E059
:10136C0083DE1B4338B528241A4B5D68FFF7BAFBA4
:10137C00194BA3FB0030800C04FB00F4154B5B688D
:10138C005B1BA342FAD302211448FFF78BF840B140
:10139C00002402211148FFF785F80028F9D12046D6
:1013AC0038BD50240B4B5D68FFF79CFB0A4BA3FB2D
:1013BC0000239B0C04FB03F4064B5B685B1BA342F2
:1013CC00FAD302210548FFF76DF808B10124E0E7D4
:1013DC00FF24DEE7001000E083DE1B430008014021
:1013EC00F8B5002637460DE0C6F1070201239340FD
:1013FC001F43FFB202211748FFF754F80028F9D118
:10140C000136F6B2072E22D802211248FFF74AF80D
:10141C000028F9D02824104B5D68FFF763FB0F4BB5
:10142C00A3FB0030800C04FB00F40B4B5B685B1BD4
:10143C00A342FAD302210748FFF734F80028D3D18E
:10144C00C6F107020123934027EA0307D2E7384687
:10145C00F8BD00BF00080140001000E083DE1B4314
:10146C000E4BDA6822F08072DA60DA6842F0807231
:10147C00DA600B4B1A6822F001021A601A6842F00B
:10148C0001021A6000225A6000BF00BF00BF5B68F7
:10149C000BB9012070471046704700BFF0ED00E01B
:1014AC00001000E02DE9F04389B000240494059469
:1014BC00069407942F4B9A6942F010029A619A692C
:1014CC0002F010020092009A9A6942F020029A618E
:1014DC009A6902F020020192019A9A6942F0040280
:1014EC009A619A6902F004020292029A9A6942F095
:1014FC0008029A619B6903F008030393039BDFF8CE
:10150C007C9022464FF400514846FEF7D2FFDFF89C
:10151C007080224641F602614046FEF7CAFF164F24
:10152C0022464FF400713846FEF7C3FF4FF40053C8
:10153C0004930126059606940225079504A94846AE
:10154C00FEF7C4FE41F602630493059606940795D4
:10155C0004A94046FEF7BAFE4FF4007304930596B7
:10156C000694079504A93846FEF7B0FE09B0BDE80D
:10157C00F08300BF00100240000C0140001001403D
:10158C000008014010B590B02422002107A800F0FB
:10159C00A4FA002401940294039404940594022365
:1015AC00069301230A9310230B9306A8FEF7A6FFBC
:1015BC000F2301930294039404940594214601A8EB
:1015CC00FFF7DCF910B010BD08B5FEF7DDFDFFF735
:1015DC00D9FFFFF767FF00F007F800F0AFF800F055
:1015EC0023F9002008BD704708B50E480E4B036068
:1015FC004FF48273436000238360C3600222026154
:10160C00012242614FF400728261C3610362436242
:10161C0083620A23C362FFF7E7FA00B908BDFFF73C
:10162C00E2FFFBE7980200200038004000B587B0CD
:10163C00002302930393049305930268124B9A427E
:10164C0002D007B05DF804FB03F5EC33DA6942F421
:10165C008042DA61DA6902F480420092009A9A6957
:10166C0042F008029A619B6903F008030193019B05
:10167C004FF420430293022303930323059302A9FF
:10168C000248FEF723FEDCE700380040000C014066
:10169C0082B00E4B9A6942F001029A619A6902F08B
:1016AC0001020092009ADA6942F08052DA61DB6939
:1016BC0003F080530193019B054A536823F0E063C8
:1016CC0043F00073536002B0704700BF001002403B
:1016DC00000001407047FEE7FEE7FEE7FEE77047BB
:1016EC007047704708B5FEF761FD08BD08B50248A4
:1016FC00FFF70CFC08BD00BFF002002008B5034644
:10170C000B4A126842B10A4A106803446A46934273
:10171C0006D8074A136008BD054A06491160F2E76E
:10172C0000F0A6F90C2303604FF0FF30F3E700BF85
:10173C008C000020480300207047000000B587B0E3
:10174C00002302930393049305930093019317488A
:10175C004FF08042026040F69F724260836040F21C
:10176C00E732C260036180238361FFF7C7FC98B93D
:10177C0006A94FF4805341F8103D0C48FFF7F4FCD8
:10178C0068B900230093019369460848FFF75AFD96
:10179C0040B907B05DF804FBFFF725FFE8E7FFF75A
:1017AC0022FFEEE7FFF71FFFF3E700BFF002002078
:1017BC000368B3F1804F00D0704700B583B003F5D8
:1017CC000433DA6942F00102DA61DB6903F00103E8
:1017DC000193019B002211461C20FEF71FFD1C20CB
:1017EC00FEF750FD03B05DF804FB000070B582B04D
:1017FC0004460D461E460949684600F077F9324604
:10180C0007490DF1030000F071F96A46294620469C
:10181C0000F0B4F800F0E2F802B070BDD44A000851
:10182C00D84A00087047000080B52148FFF736FB06
:10183C0000F06EF8FFF714FE1E4800F095F800F06B
:10184C00CDF8FFF753FDFFF78DFDFFF7C9FD1A4CDF
:10185C002070FFF7C5FD194D2870FFF7C1FD184E1C
:10186C003070FFF7BDFD174F3870FFF7B9FD164B01
:10187C0018703B78327802210420FFF7B7FF2B78E1
:10188C0022782B210420FFF7B1FF104C4FF400718C
:10189C002046FEF714FE6420FEF79AFC4FF400710C
:1018AC002046FEF70CFE41F27070FEF791FCC8E783
:1018BC00F0020020FC400008380300203A0300200E
:1018CC00390300203C0300203B030020000C0140A6
:1018DC0030B583B002AC04F8010D0B4D00224FF46F
:1018EC0040612846FEF7E5FD4FF0FF33012221460B
:1018FC000648FFF7D4F901224FF440612846FEF761
:10190C00D8FD03B030BD00BF000801409802002094
:10191C0010B5144C00224FF480512046FEF7C9FD3F
:10192C0001224FF480512046FEF7C3FD01224FF4F3
:10193C0000712046FEF7BDFD00224FF48061204669
:10194C00FEF7B7FD2120FFF7C3FF1420FFF7C0FF00
:10195C00AF20FFF7BDFF2020FFF7BAFF0C20FFF7E9
:10196C00B7FF10BD0008014008B54FF4FC720146EA
:10197C00014800F0A7F808BD9400002030B45425AD
:10198C0005FB0014124B1C4400FB05500844184482
:10199C0010E00D7805700131013001330E2B07DC9E
:1019AC0013F0010FF5D10D78257001310134F4E7F6
:1019BC0001340230137843B106498C4205D201320E
:1019CC00054901EB03110023E8E730BC704700BF69
:1019DC0094000020860200203423000810B50E4C21
:1019EC0001224FF480612046FEF763FD00224FF484
:1019FC0000612046FEF75DFD4FF0FF334FF4FC72A3
:101A0C0006490748FFF74BF901224FF400612046C5
:101A1C00FEF74FFD10BD00BF0008014094000020F0
:101A2C0098020020002103E00B4B5B58435004311B
:101A3C000A480B4B42189A42F6D30A4A02E000239A
:101A4C0042F8043B084B9A42F9D3FFF775FE00F0BD
:101A5C0015F8FFF7B9FD7047184B0008000000207F
:101A6C00700000207000002044030020FEE70000FE
:101A7C00014B1868704700BF0C00002070B50025A2
:101A8C000C4E0D4CA41BA410A54209D100F036FC41
:101A9C0000250A4E0A4CA41BA410A54205D170BD0A
:101AAC0056F8253098470135EEE756F8253098471B
:101ABC000135F2E7104B0008104B0008104B0008E2
:101ACC00144B000810B5431E0A44914200D110BDBE
:101ADC0011F8014B03F8014FF7E703460244934218
:101AEC0000D1704703F8011BF9E700000EB46FF04A
:101AFC00004100B59CB01DAB02900690079104917B
:101B0C000848094953F8042B0591006802A9019370
:101B1C0000F066F80022029B1A701CB05DF804EB12
:101B2C0003B070470C0000200802FFFF2DE9F047BE
:101B3C008E6882469E420C469046994637D88A89D2
:101B4C0012F4906F31D00223256809696F1A656908
:101B5C0005EB450595FBF3F509F101033B449D426B
:101B6C0038BF1D46530530D5294600F02DFB0646DF
:101B7C0050B90C234FF0FF30CAF80030A38943F062
:101B8C004003A381BDE8F0873A462169FFF79AFF2D
:101B9C00A38923F4906343F08003A38126613E4420
:101BAC0026604E466561ED1BA5604E4500D94E463C
:101BBC0032464146206800F0A1FAA36800209B1B26
:101BCC00A36023681E442660DCE72A4600F056FB1F
:101BDC0006460028E2D12169504600F0A9FAC8E770
:101BEC002DE9F04F1D468B899DB01F0680460C4693
:101BFC0016460FD50B696BB9402100F0E5FA206051
:101C0C00206128B90C23C8F800304FF0FF30C8E031
:101C1C00402363610023099320238DF8293030235E
:101C2C004FF0010B8DF82A30039537463D4615F8D9
:101C3C00013B0BB1252B3ED1B7EB060A0BD053461B
:101C4C00324621464046FFF771FF013000F0A48078
:101C5C00099B534409933B78002B00F09D80002393
:101C6C004FF0FF32CDE90523049307938DF85330E1
:101C7C001A932F46052217F8011B504800F030FA32
:101C8C00049BD0B9D90644BF20228DF853201A07E3
:101C9C0044BF2B228DF853202A782A2A15D02F46A0
:101CAC0000200A25079A394611F8013B303B092BD5
:101CBC004DD9B8B10FE02F46B8E7404A3D46801ADF
:101CCC000BFA00F018430490D3E7039A111D126825
:101CDC000391002A01DB079204E0524243F0020315
:101CEC00079204933B782E2B0CD17B782A2B33D183
:101CFC00039B02371A1D1B680392002BB8BF4FF0D1
:101D0C00FF3305932E4D03223978284600F0E8F96D
:101D1C0038B14023401B03FA00F0049B0137034306
:101D2C0004933978062227487E1C8DF8281000F081
:101D3C00D7F9002838D0244B13BB039B073323F06F
:101D4C00070308330393099B4B4409936DE705FB89
:101D5C00023201200F46A6E700230A251946013757
:101D6C000593384610F8012B303A092A03D9002B79
:101D7C00C8D00591C6E705FB012101230746F0E712
:101D8C0003AB00932246114B04A94046AFF30080ED
:101D9C00B0F1FF3F8146D6D1A3895B063FF535AF45
:101DAC0009981DB0BDE8F08F03AB00932246074B9A
:101DBC0004A9404600F082F8EAE700BFDC4A0008BC
:101DCC00E24A0008E64A000800000000391B00083F
:101DDC002DE9F04791461F468A680B6906469342E7
:101DEC00B8BF1346C9F8003091F843200C46DDF813
:101DFC00208012B10133C9F800302368990642BF24
:101E0C00D9F800300233C9F80030256815F0060502
:101E1C0007D104F1190AE368D9F800209B1AAB42E8
:101E2C0029DC94F843302268003318BF0123920652
:101E3C002ED404F1430239463046C047013021D03C
:101E4C002368E56803F00603042B18BF0025D9F8B6
:101E5C0000204FF0000908BFAD1AA368226908BF23
:101E6C0025EAE5759342C4BF9B1AED181A344D450B
:101E7C001AD1002008E00123524639463046C047AB
:101E8C00013003D14FF0FF30BDE8F0870135C2E7D8
:101E9C003020E11881F843005A1C94F84510224474
:101EAC00023382F84310C4E70123224639463046F8
:101EBC00C0470130E6D009F10109D8E72DE9F0431C
:101ECC0001F1430C0C46097E85B06E291746064677
:101EDC0098460C9A00F0B38022D8632936D00AD8E1
:101EEC00002900F0B980582900F0838004F14205E4
:101EFC0084F8421032E0642901D06929F6D12068B7
:101F0C001368050603F104012AD51B681160002B28
:101F1C0003DA2D225B4284F843206F480A2239E011
:101F2C00732900F09D8008D86F2920D07029DDD14D
:101F3C00236843F02003236003E0752917D0782928
:101F4C00D4D17823654884F8453055E0136804F102
:101F5C004205191D1B68116084F8423001238CE086
:101F6C001B6810F0400F116018BF1BB2CFE713684D
:101F7C002568181D1060280601D51B6802E068064C
:101F8C00FBD51B886F2914BF0A2208225248002156
:101F9C0084F843106568002DA560C0F29580216817
:101FAC0021F004012160002B3DD1002D40F08E80EA
:101FBC006546082A0BD12368DB0708D523696268BC
:101FCC009A42DEBF302305F8013C05F1FF35ACEB3E
:101FDC0005032361CDF800803B4603AA2146304619
:101FEC00FFF7F6FE01304DD14FF0FF3005B0BDE8E4
:101FFC00F083394884F84510136821681D1D1B684F
:10200C0015600A060BD5CA0744BF41F020012160B8
:10201C001BB9226822F0200222601022B7E74D067D
:10202C0048BF9BB2EFE76546B3FBF2F102FB1133FD
:10203C00C35C05F8013D0B460029F5D1B9E71368DF
:10204C002568181D6169106028061B6801D5196088
:10205C0002E06A06FBD51980002365462361B9E7C7
:10206C001368191D11601D6862680021284600F074
:10207C0037F808B1401B606063682361002384F863
:10208C004330A7E723692A4639463046C04701301A
:10209C00AAD023689B0713D4E068039B9842B8BF6F
:1020AC001846A3E701234A4639463046C04701305B
:1020BC009AD00135E368039A9B1AAB42F2DCEBE74A
:1020CC00002504F11909F5E7002BACD1037804F1D4
:1020DC00420584F842306CE7ED4A0008FE4A0008DD
:1020EC0010B5C9B202449042034601D1002303E06B
:1020FC001C7801308C42F6D1184610BD884210B5C0
:10210C0001EB020307D8421E99420AD011F8014B89
:10211C0002F8014FF8E78342F5D98118D21AD3425D
:10212C0000D110BD13F8014D01F8014DF7E7000087
:10213C0038B50546002943D051F8043C0C1F002B40
:10214C00B8BFE41800F0D0F81E4A1368104633B933
:10215C00636014602846BDE8384000F0C6B8A3425E
:10216C000BD921686218934201BF1A685B68521838
:10217C00226063600460EDE713465A680AB1A2421C
:10218C00FAD919685818A0420BD120680144581884
:10219C0082421960DED110685268014419605A609D
:1021AC00D8E702D90C232B60D4E7206821188A4287
:1021BC0001BF116852680918216062605C60C9E750
:1021CC0038BD00BF8C02002070B5CD1C25F0030576
:1021DC0008350C2D38BF0C25002D064601DBA94215
:1021EC0003D90C233360002070BD00F07DF8214A28
:1021FC001468214691B9204C23681BB9304600F075
:10220C0063F820602946304600F05EF8431C24D168
:10221C000C233046336000F068F8E4E70B685B1B76
:10222C0018D40B2B0FD90B60CC18CD50304600F0C6
:10223C005CF804F10B00231D20F00700C31AD3D067
:10224C005A42E250D0E74B688C4216BF6360136071
:10225C000C46EBE70C464968CCE7C41C24F003049D
:10226C00A04205D0211A304600F02EF80130CFD014
:10227C002560DBE78C02002090020020F8B50746B1
:10228C0014460E4621B9BDE8F8401146FFF79CBF35
:10229C0022B9FFF74DFF25462846F8BD00F026F879
:1022AC00A0420FD221463846FFF78EFF0546002884
:1022BC00F2D031462246FFF705FC31463846FFF78F
:1022CC0037FFE9E73546E7E738B50023054C054607
:1022DC0008462360FFF712FA431C02D1236803B1AE
:1022EC002B6038BD400300207047704751F8043C08
:1022FC00181F002BBCBF0B58C0187047F8B500BF97
:10230C00F8BC08BC9E467047F8B500BFF8BC08BCCA
:04231C009E46704722
:1023200002030405060708090A0B0C0D0E0F101016
:10233000010200000000000000000000000000009A
:1023400000000000000780084015401440144015AC
:10235000800800070007800FC012C017C017C01206
:10236000800F0007F000F803F80FF01FF01FF80FC0
:10237000F803F0008000C001E003F007F81FE00759
:10238000C00180008001C003F003F81FF81DF003B6
:10239000C003800100038007C007F01FF81BE0079F
:1023A000C0078003000000000000000000000000E3
:1023B000000000000000000000000000000000001D
:1023C000000000000000000000000000000000000D
:1023D00000000000000000000000000000000000FD
:1023E0000000000000078008401040105010E8086E
:1023F00018073000E0001009080A081E080A100932
:10240000E0000000000000000000000000000000EC
:1024100000000000006000700070E03F30181018ED
:10242000F80F00000001C007C006600C4004400423
:10243000C0070001E01FC00FC00F800780038003AA
:102440000001000100010001800380038007C00F2C
:10245000C00FE01F0000000020101020F87F1020A7
:102460002010000000000000F81B00000000F81B16
:10247000000000007000F800F800F87F0800080075
:10248000F87F000000000000F0634846C844884C14
:10249000083B000000008001800180018001800174
:1024A000800100000000000010880890FCBF089028
:1024B000108800000000000020001000F87F1000CD
:1024C000200000000000000000100020F87F002025
:1024D0000010000000000001000100014005800321
:1024E0000001000000000001800340050001000120
:1024F000000100000000C01F0010001000100010BC
:1025000000100000000000018003000100018003B2
:10251000000100000010001C001E801FE01F801F33
:10252000001C00102000E000E001E007E01FE007D1
:10253000E00020000000000000000000000000009B
:1025400000000000000000000000F81B0000000078
:1025500000000000000000003C00000000003C0003
:10256000000000000002401A4007E002581A40072D
:10257000E0025802000070108810FC3F0811080E9D
:10258000000000007010880888067001800E60113D
:102590001011080E000F0019F01088114816301C99
:1025A000001C00130000000000003C0000000000C0
:1025B0000000000000000000C007301808200C6078
:1025C00004400000000004400C6008203018C007E0
:1025D0000000000000002000E00198004000A00181
:1025E00020000000000200020002C01F00020002E2
:1025F0000002000000000000000000580038000049
:1026000000000000000000010001000100010001C5
:102610000001000000000000000000180018000089
:10262000000000000000004000380007C001380032
:10263000040000000000E00710080810081010084F
:10264000E00700000000101010101010F81F00101C
:1026500000100010000008180814081288117010EB
:10266000000000000000000008108810881088108A
:10267000700F000000000003800260021002F81FCB
:102680000002000000000000F810881088100811F7
:10269000080F00000000E00710098810881088105B
:1026A000000F0000000008000818080788006800F4
:1026B000180000000000700E881188108810481162
:1026C000300E00000000F0000811081108119008F9
:1026D000E0070000000000000000C018C018000063
:1026E00000000000000000000000C058C0380000DA
:1026F00000000000000000020002000580088008C1
:1027000040100000000080048004800480048004E5
:1027100080040000000040108008800800050002CE
:1027200000020000000018000800081B8800480094
:1027300030000000C007300C1810C8172814281AE1
:10274000F00700040010000E800560043004C0058E
:10275000000E00100000F01F101110111011901247
:10276000600C0000C007200810101010101010108E
:1027700010100000F01F1010101010101010200882
:10278000C00700000000F01F1011101110111011EF
:10279000101000000000F01F1001100110011001C6
:1027A00010000000C00720081010101010121012A6
:1027B000101E00000000F01F0001000100010001D8
:1027C000F01F0000000010101010F01F101010106B
:1027D0000000000000000010101010101010F00F8A
:1027E000000000000000F01F0001800240042008EB
:1027F000101000000000F01F00100010001000106A
:1028000000100000F01F70008003000480037000BF
:10281000F01F00000000F01F6000800100060008AB
:10282000F01F0000C0072008101010101010200822
:10283000C00700000000F01F10021002100210017B
:10284000E0010000C0072008101010101010202810
:10285000C06700400000F01F100110011007E00CDD
:10286000001000000000E010901010111011101264
:10287000100E0000100010001000F01F10001000DB
:10288000100000000000F00F0010001000100010F9
:10289000F00F00001000E0000007001800068001A3
:1028A00060001000F000000F001CC0038003001C3B
:1028B000C00F700010102008400480038003400403
:1028C00020081010100060008000001F80014000F0
:1028D0002000100010181014101210119010501039
:1028E00030100000000000000000FC7F04400440A5
:1028F00004400000000004003800C0010007003858
:10290000004000000000044004400440FC7F000040
:1029100000000000000000040003E0003800C001D7
:1029200000060000002000200020002000200020E1
:10293000002000200000000000000000040008004B
:10294000000000000000000C401240124012401233
:10295000801F00100000FC1F800840104010401035
:10296000800F000000000007800840104010401059
:10297000401000000000800F401040104010800800
:10298000FC1F00000000000FC01240124012401255
:1029900080130000000040004000F81F4400440085
:1029A000440000000000800F409040904090C0889C
:1029B000C07F00000000FC1F80004000400040007D
:1029C000801F00000000400040004C00CC1F0000B1
:1029D0000000000000000080408040804C80CC7FE0
:1029E000000000000000FC1F0002000580044008F9
:1029F000001000000000040004000400FC1F0000A0
:102A000000000000C01F80004000C01F8000400088
:102A1000C01F00000000C01F8000400040004000B8
:102A2000801F000000078008401040104010800800
:102A3000000700000000C0FF800840104010401058
:102A4000800F00000000800F4010401040108008F0
:102A5000C0FF00000000C01F800040004000C00018
:102A60000000000000008011401140124012400C94
:102A70000000000040004000F00F401040104010E7
:102A8000401000000000C00F0010001000100008EF
:102A9000C01F000040008003000C0010000C00026A
:102AA00080014000C0000007001C00038003001CE0
:102AB0000007C000000040108008000700078008E1
:102AC000401000004080808100C600780018000699
:102AD0008001400040104018401440124011C010C6
:102AE00040100000000000010001F83E04400440D6
:102AF000044000000000000000000000FC7F000017
:102B0000000000000000044004400440F83E0001C2
:102B100000010000000380008000000100010002AD
:102B200000028001001F80104010601040108010D3
:102B3000001F0000C00720081010101010B010D0A7
:102B4000101000000000C00F08100010001008084E
:102B5000C01F00000000000FC012401248124412B3
:102B6000801300000000000C481244124412481266
:102B7000801F00100000000C481240124012481242
:102B8000801F00100000000C401244124812401236
:102B9000801F00100000000C40124812541248120E
:102BA000801F001000000007800840B040D0401097
:102BB000401000000000000FC812441244124812D6
:102BC000801300000000000FC01248124012401293
:102BD000881300000000000FC01244124812401277
:102BE000801300000000400048004000C01F0800A3
:102BF000000000000000400048004400C41F08001E
:102C0000000000000000400040004400C81F000019
:102C1000000000000010000E840560043004C405AC
:102C2000000E00100018000FE8043404E8048007C8
:102C3000000C00100000F01F1011101118111411D9
:102C400010100000400C40124012800F4012401241
:102C5000401280130010000E80056004F01F101158
:102C60001011101000078008481044104410880804
:102C70000007000000078008481040104010880836
:102C8000000700000007800844104810401080082A
:102C9000000700000000C00F08100410041008080E
:102CA000C01F00000000C00F041008100010000832
:102CB000C01F00004080808108C600780018080608
:102CC00080014000C00720081410101010102408C4
:102CD000C00700000000F00F0410001000100410E6
:102CE000F00F00008017C018401440124011C008B7
:102CF000C0070000000000008018F01788100810BE
:102D000008100000C017200C10121011901060085D
:102D1000D007000040108008000500020005800870
:102D200040100000008000804080F87F4400440094
:102D3000040000000000000C40124012481244122F
:102D4000801F00100000400040004000C81F040029
:102D50000000000000078008401040104810840860
:102D6000000700000000C00F001000100810040849
:102D7000C01F00000000C01F880044004800480039
:102D8000841F00000000F01F680084010C06080882
:102D9000F41F000000000000C800A800A800F80010
:102DA000800000000000700088008800880070002B
:102DB000000000000000006000900088C0860080D5
:102DC00000C000000000F00008016801680108016F
:102DD000F0000000000100010001000100010001FD
:102DE000000700000810F80C000680016019301977
:102DF000081500130810F80C0002800D600A100975
:102E0000081F0008000000000000C0FE00000000D5
:102E1000000000000000000380044008000380045C
:102E200040080000000040088004000340088004BF
:102E300000030000242500000000242500000000FD
:102E400024250000489224250000489224250000F3
:102E500048922425FCFF24252425FCFF2425242535
:102E6000FCFF24250000000000000000FCFF000023
:102E7000000000000001000100010001FCFF000053
:102E8000000000000010000E800568043404C00536
:102E9000000E00100010000E880564043404C805FC
:102EA000000E00100010000E800564043804C005F8
:102EB000000E0010E0071008C81328142814281466
:102EC0001008E007800280028002FCFE0000FCFF88
:102ED00000000000000000000000FCFF0000FCFFFC
:102EE0000000000080028002800280FE800080FFDF
:102EF00000000000800280028002FC020002FC034D
:102F0000000000000000C00320041008F81F100893
:102F100010080000080010056005801F400520050E
:102F200010000800000100010001000100FF000086
:102F3000000000000000000000000000FC01000193
:102F4000000100010001000100010001FC0100017D
:102F500000010001000100010001000100FF00016B
:102F6000000100010000000000000000FCFF000163
:102F70000001000100010001000100010001000149
:102F8000000100010001000100010001FCFF00013F
:102F9000000100010000000C4812441248124812BF
:102FA000841F00100010000E880564043C04C8054E
:102FB000040E0010000000000000FC030002FC02F0
:102FC0008002800200000000000080FF800080FE80
:102FD00080028002800280028002FC020002FC0269
:102FE0008002800280028002800280FE800080FEDB
:102FF00080028002000000000000FCFF0000FCFED8
:1030000080028002800280028002800280028002B0
:1030100080028002800280028002FCFE0000FCFE32
:10302000800280021008E007200420042004E0074A
:1030300010080000040794085C1048105410E008C1
:10304000800700000001F01F101110111010101067
:103050002008C0070000F01F1811141114111811D6
:10306000101000000000F01F1411101110111411A5
:10307000101000000000F01F101110111411181191
:10308000101000000000400040004000C01F000081
:1030900000000000000010101010F01F1810141095
:1030A00000000000000010101810F41F1410181079
:1030B00000000000000010101410F01F1010141079
:1030C000000000000001000100010001FC010000FF
:1030D00000000000000000000000000000FF0001F0
:1030E00000010001FCFFFCFFFCFFFCFFFCFFFCFFFC
:1030F000FCFFFCFF00FE00FE00FE00FE00FE00FEE6
:1031000000FE00FE00000000000000007C7C0000CB
:1031100000000000000010101010F41F1810101014
:1031200000000000FC01FC01FC01FC01FC01FC01B1
:10313000FC01FC01C0072008101010101810240812
:10314000C00700000000F81F04000400C41038117C
:103150000012000CC00720081810141014102808C2
:10316000C0070000C0072008101014101810200815
:10317000C007000000078008481044104810880865
:1031800004070000C0072008181014101C1028089D
:10319000C40700000000C0FF000800100010000875
:1031A000C01F00000000FCFF8008401040104010CD
:1031B000800F00000000F01F400440044004400461
:1031C000800300000000F00F001000100810041031
:1031D000F00F00000000F00F081004100410081099
:1031E000F00F00000000F00F001000100410081095
:1031F000F00F00004080808100C6007808180406A7
:1032000080014000100060008000001F8801440021
:103210002000100004000400040004000400040066
:10322000040004000000000000000800040000008A
:103230000000000000000001000100010001000189
:1032400000010000001100110011C0170011001151
:103250000011000000A000A000A000A000A000A09D
:1032600000A000A0A810A808D806000D800A6009D8
:10327000101F08087000F800F800F87F0800080028
:10328000F87F000000000000F0634846C844884C06
:10329000083B0000000200020002C01AC01A00022F
:1032A0000002000000000000000000A000C00000BC
:1032B00000000000000000001000280010000000C6
:1032C00000000000000000000400000000000400F6
:1032D00000000000000000000000000300030000E8
:1032E000000000000000000000000800F8000000DE
:1032F00000000000000000008800A800A800D8001E
:1033000000000000000000008800C800A80098002D
:10331000000000000000C01FC01FC01FC01FC01F52
:10332000C01F0000000000000000000000000000BE
:1033300000000000000000000000005F0000000727
:10334000000700147F147F14242A7F2A12231308F5
:10335000646236495522500005030000001C2241DA
:10336000000041221C0014083E081408083E08080A
:1033700000503000000808080808006060000020C5
:10338000100804023E5149453E00427F4000426120
:103390005149462141454B311814127F10274545AC
:1033A00045393C4A494930017109050336494949C3
:1033B00036064949291E0036360000005636000000
:1033C0000814224100141414141400412214080299
:1033D00001510906324979413E7E1111117E7F4922
:1033E0004949363E414141227F4141221C7F4949A2
:1033F00049417F090909013E4149497A7F08080886
:103400007F00417F41002040413F017F081422415D
:103410007F404040407F020C027F7F0408107F3EC7
:103420004141413E7F090909063E4151215E7F0924
:10343000192946464949493101017F01013F404070
:10344000403F1F2040201F3F4038403F6314081476
:103450006307087008076151494543007F414100F7
:1034600002040810200041417F00040201020440D0
:1034700040404040000102040020545454787F48EA
:103480004444383844444420384444487F385454F1
:103490005418087E0901020C5252523E7F0804045F
:1034A0007800447D40002040443D007F10284400C7
:1034B00000417F40007C041804787C0804047838BC
:1034C000444444387C14141408081414187C7C08F0
:1034D0000404084854545420043F4440203C4040D5
:1034E000207C1C2040201C3C4030403C44281028BC
:1034F000440C5050503C4464544C44000836410045
:1035000000007F000000413608001008081008780D
:10351000464146780000000000000000010203045C
:10352000060708090000000001020304FFFFFFFF77
:10353000FF7F7F7FFFFFFFFF7F7FFFFFFFFFFFFF1B
:10354000FFFFFFFFFFFFFF7F3F3FFFFFFFFFFFFF8B
:10355000FFFF7F7F7F7F7F7FFFFFFFFFFFFFFFFF7B
:10356000FFFFFFFFFFFF7F7F3F7FFFFFFFFFFFFFAB
:10357000FFFFFFFF7F1F8FFFFFFFFFFFFFFFFFFF2B
:10358000FF0F0331F0100000033FFF000000FFFFBA
:10359000FFFFFFFFFFFFFF3F0781E0100000FFFF7D
:1035A000FFFF0701F8F8000080F8200001FFFFFF8F
:1035B000FFFFFFFFFFFFFF1F03C0F0000000FFFF42
:1035C000FFFFFF7F7FFFFF0700FCFFFFFFFFFFFF05
:1035D000FFFFFFFFFFFCF8FEFF000000F0000F0000
:1035E00000E0FFFFFF870301E10101801C3FFF00B6
:1035F0000000FFFFFFFFFCFCFF010000C10100080D
:10360000FEFFFFFFFF0301E1E10300801F7FFF00DA
:1036100000FEFFFFFFFFFFF0E0F90100F8FFFFFFF2
:10362000FFFFFFFFFFFFFFFFFFFFFFFFFF0000FCAB
:10363000FFFEC00000FFFFFFFFFFFFFF0F00F0FFD6
:10364000FFFCF00000E0FFFFFFFFFFFFFF000000B6
:10365000FFC000000787E3FFFFFFFFFF0000FEFF42
:10366000FEF8000000FFFFFFFFFF8F0707FF0000CD
:10367000FFFFFFFFFFFFFFFFFFFFFFFFFFFFFFFF5A
:10368000FFFFFFFFFFFFFFFFFFFFFFFFFFFFFFFF4A
:10369000FFFFFFFFFFFFFFFFFFFFFFFFFFFFFFFF3A
:1036A000FFFFFFFFFFFFFFFFFFFFFFFFFFFFFFFF2A
:1036B000FFFFFFFFFFFFFFFFFFFFFFFFFFFFFFFF1A
:1036C000FFFFFEE003FFFFFFFFFFFFFFFFFFFFFF26
:1036D000FFFFFFFFFFFFFFFFFFFFFFFFFFFFFFFFFA
:1036E000FFFFFFFFFFFFFFFFFFFFFFFFFFFFFFFFEA
:1036F000FFFFFFFFFFFFFFFFFFFFFFFFFFFFFFFFDA
:10370000FFFFFFFFFFFFFFFFFFFFFFFFFFFFFFFFC9
:10371000FFFFFFFFFFFFFFFFFFFFFFFFFFFFFFFFB9
:10372000FFFFFFFF0000000000808080000000001D
:103730008080000000000000000000000000008009
:10374000C0C00000000000000000808080808080F9
:103750000000000000000000000000000000808069
:10376000C0800000000000000000000080E0700049
:10377000000000000000000000F0FCCE0FEFFFFF93
:10378000FCC000FFFFFF000000000000000000C0C0
:10379000F87E1FEFFFFF00000000F8FE0707FFFFA5
:1037A0007F07DFFFFE00000000000000000000E0D7
:1037B000FC3F0FFFFFFF000000000080800000F8CA
:1037C000FF030000000000000000000000030701EC
:1037D00000FFFFFF0FFFF0FFFF1F00000078FCFE5F
:1037E0001EFEFE7FE3C000FFFFFF0000000003039A
:1037F00000FEFFFF3EFEFFF70100000000FCFE1E82
:103800001EFCFF7FE08000FFFF0100000000000FB2
:103810001F06FEFF0700000000000000000000007F
:103820000000000000FFFF0300013FFFFF00000059
:1038300000000000F0FF0F0000030FFFFF1F00005B
:103840000000000000FFFFFF003FFFFFF8781C00B2
:1038500000000000FFFF01000107FFFFFF00000064
:10386000000070F8F800FFFF0000000000000000FA
:103870000000000000000000000000000000000048
:103880000000000000000000000000000000000038
:103890000000000000000000000000000000000028
:1038A0000000000000000000000000000000000018
:1038B00000000000000000000000011FFC000000EC
:1038C00000000000000000000000000000000000F8
:1038D00000000000000000000000000000000000E8
:1038E00000000000000000000000000000000000D8
:1038F00000000000000000000000000000000000C8
:1039000000000000000000000000000000000000B7
:1039100000000000000000000000000000000000A7
:103920000000000000000000000000000000000097
:103930000000000000000000000000000000000087
:103940000000000000000000000000000000000077
:103950000000000000000000000000000000000067
:103960000000000000000000000000000000000057
:1039700000C0C0C0C0C0C0C0C0C0C0C0C0C0C0C007
:10398000C0C0C0C0C0C0C0C0C0C0C0C0C0C0C0C037
:10399000C0C0C0C0C0C0C0C0C0C0C0C0C0C0C0C027
:1039A000C0C0C0C0C0C0C0C0C0C0C0C0C0C0C0C017
:1039B000C0C0C0C0C0C0C0C0C0C0C0C0C0C0C0C007
:1039C000C0C0000000FFFF0707070707070707073A
:1039D000070707070707070707FFFFFFFFFFFFFFAF
:1039E000FFFFFFFFFFFFFFFFFFFFFFFFFFFF0707D7
:1039F000FFFFFFFFFF0707070707FFFFFFFFFFFFAF
:103A0000FFFFFFFFFFFFFFFFFFFFFFFFFFFF0707B6
:103A100007FFFFFFFFFF00000000000000000000A4
:103A20000000000000000000000000000000000195
:103A30001F1FFFFFFFFFFFFFFFFFFFFF1F1F1FE015
:103A4000E0F0FFFF1F1F1F0000000000000000004B
:103A5000001F1FFFFFFFFFFFFFFFFFFFFF1F1F1FD5
:103A6000E0E0FEFFFF1F1F0100000000000000005B
:103A70000000000000000000000000000000000046
:103A80000000000000000303037F7F7F7F7F7F7FB4
:103A90007E7C7C7F7F3F030300000000000000006D
:103AA000000000000000000303037F7F7F7F7F7F13
:103AB0007F7C7C7C7F7F030303000000000000000C
:103AC00000000000000000000000000000000000F6
:103AD00000000000000000000000000000000000E6
:103AE00000000000000000000000000000000000D6
:103AF00000000000000000000000000000000000C6
:103B000000000000000000000000000000000000B5
:103B100000000000FFFFFF7F3F3F3F1F1F1F1F1FD1
:103B20001F0F0F0F1F0F070707078DC5E1E7F7F3FB
:103B3000783C381F1F0D0D00000000000000000041
:103B4000000002070F1F1F1F1F1F1F1F3F3F7F7F08
:103B5000FFFFFFFFFFFFFFFFFFFFFFFFFFFFFFFF75
:103B6000FFFFFFFFFFFFFFFFFFFFE0C080C08000FF
:103B7000000000000000000080E0F8FCFEFF3F1F96
:103B8000070301000000000000000000000000002A
:103B90000000000000000000000000000000000025
:103BA000000000000000010F3F7F7FFFFFFFFFFFCD
:103BB000FFFFFFFFFFFFFFFFFFFFFFFFFFFFFFFF15
:103BC000FFFFFFFFFEFCF8F8F8F8F0F8FFFFFF0F2B
:103BD00003000000000000000000000000000000E2
:103BE00000000000000000000000000000000000D5
:103BF0000040C0C00000000000800002FFFFFEFE89
:103C0000FEFFFFFFFFFFFFFFFFFFFFFFFFFFFFFFC5
:103C1000FFFFFFFFFFFFFFFFFFFFFFFFFFFFFFFFB4
:103C2000FF0700000000000000000000000000008E
:103C30000000000000000000000000000000000084
:103C4000000070F8C68FDFFFFF7C000080FCFF3EA5
:103C5000FFFFFFFFFFFFFFFFFFFFFFFFFFFFFFFF74
:103C6000FFFFFFFFFFFFFFFFFFFFFFFFFFFFFFFF64
:103C7000FFFFFFFFFCE0C0C080C0C0C0C0C08080AC
:103C8000C0F88000000000000000000000000000FC
:103C90000000000000000000008081808000000023
:103CA000070301C0DFFFFFFFFFFFFFFFFFFFFFFF75
:103CB000FFFFFFFFFFFFFFFFFFFFFFFFFFFFFFFF14
:103CC000FFFFFFFFFFFFFFFFFFFFFFFFFFFFFFFF04
:103CD000FFFFFFFFFFFFFFFCFCFCFCFC3C1830403B
:103CE000C08080C0E0F0F0D8DCFCFEFEFFFFFFFFEC
:103CF000FFFFFFFEFEFEFEFFFFFFFFFFFFFFFFFFD8
:103D0000FFBF9FBFBFFFFFFFFFFFFFFFFFFFFFFFE3
:103D1000FFFFFFFFFFFFFFFFFFFFFFFFFFFFFFFFB3
:103D2000FFFFFFFF0F0F87E7E7FBFFFFFFFFFFFF2F
:103D3000FFFFFFFFFFFFFFFFFFFFFFFFFDF9F1E1C7
:103D4000C181010101010101010101030000000025
:103D50000000000000000000000000000000000063
:103D6000E3E3E3E3E3E3E3E3E3E3E3E3E3E3E3E323
:103D7000E3E3E3E3E3E1E1E0E0E363636363E323DD
:103D80000303070767E7E7EFEFCF9F3F3F7FFFFFA3
:103D9000FFFFFFFFFFFFFFFEFCFE3E3E3E3E3EFFFD
:103DA0000000000000000000000000000000000013
:103DB00000000000001C7FFF7FFFFFFFFFFFFF3FB1
:103DC0003F3F1F9F9F8F0F8E8703010100C0F0F0C0
:103DD000F0E080000000F0F8F879F3F7C7CFC7C033
:103DE00000000000FFFFFFFFFFFFFFFFFFFFF020CD
:103DF00020202070000000000000000000000000F3
:103E000000000000000000007E60606060444F4FD2
:103E10004F070000868E8F8F0F8F9F9F9F1F1E5E04
:103E20007E7F3F3F7F7F7D78604070707C7FBFBF2B
:103E3000BFFFFFFFE0F0F8FEFFFFFFFFFFFFFFFF08
:103E4000FF7F7F4040404040000000000000000035
:103E5000000000000000000000000000FEFFFEFE69
:103E6000FEFEFEFEFEFEFEFEFEFEFCFCFCFEFCFE7A
:103E7000FEFEFCFCFCFCFEFEFEFEFEFEFEFEFEFE6A
:103E8000FFFFFFFFFFFFFFFFFFFFFFFFFFFFFFFF42
:103E9000FF3F1F07010000000000000000000000BD
:103EA0000000000000000000000000000000000012
:103EB000FFFFFFFFFFFFFFFFFFFFFFFFFFFFFFFF12
:103EC000FFFFFF7F7F3F1F0F070103070F1F3F3FCC
:103ED0007F7F7FFFFFFFFFFFFF7F7F7F7F3F3F1FD2
:103EE0000F070301000000000000000000000000B8
:103EF00000000000000000000000000000000000C2
:103F0000000000000707070703030181818080800C
:103F10008000000000000000000000000000000021
:103F20000000000000000040406060707070707021
:103F30007070F0F0F0F0F8F8F8F8F8F8F8FCF8F82D
:103F4000F0F0E0E0C0C08080000000000000000051
:103F50000000000000000000060303010101010150
:103F6000000001030780C0C06020100000000000B6
:103F7000000000103030F0F0303000000000000091
:103F80000000000000000020F0FCFCE0C0C0E0F0F9
:103F9000F9F1E10303070F1F3FFFFFFFFFFFFEFEE5
:103FA000FCF8F0C08000000000000000F0F0E0C06D
:103FB000C0C0E0E0F0F8FCFEFFFFFFFFFEF8F0E01D
:103FC000C0808080C0E0F8FCFCC080FFFFF0008073
:103FD000C0F0FAFEFEFEFCE0C0808080818183C3D9
:103FE000C7C7C7C7CF870100000000000000071F38
:103FF000FFFFFFFFFFFFFFFFFFFFFEFCF0000000E1
:10400000FFFFFFFFFFFFFFFFFFFFFFFFFFFFFFFFC0
:10401000FFFFFFFFFFFFFFFFFFFFFFFFFFFFFFFFB0
:10402000FFFFFFFF0F070307030303030303FBFF68
:10403000FFFFFFFFEFFFFFFFFFFFFF3C000000005F
:104040000080C0F0FFFFFFFFFFFFFFFFFFFF3F1FEC
:1040500007000000FFFF7F7F3F0F07030000010103
:10406000010101010101010303030707070F0F0FFE
:104070000F3F7F7FFFFFFFFFFCF8F8F8F8F8F8F834
:10408000FCFEFFFFFFFFFFFFFFFFFFFFFFFFFFFF44
:10409000FFFFFEFFFF7F7F3F3F1F1F1F1F17070F01
:1040A0000702000000000000030100000000000003
:1040B0000000008000000000800000000000000000
:1040C00000000000000000000000000101030303E5
:1040D00003030703030303030707030303030303A4
:1040E00003030301010100000000000000000000C4
:1040F000000000000000000000000000FF010101BE
:1041000001E1390D05050D39E101010171F98D8DCF
:104110008DF971010101010101010101010101019B
:104120000101010101FF01010101010181C1713999
:1041300071C181010101010101010171F98D8D8DB3
:10414000F97101010181E1FDFD1D050D010101FF75
:10415000FF00000000FF0000F8F80149FF00000028
:10416000000001010100F8FEFFFFFFFFFF7F3F3F5E
:104170003F3F3F3F1E00000000FF000080E0388E00
:10418000838080808080838E38E080000000000083
:1041900000010101000080F0FC7F1F03000000000F
:1041A000000000FFFF00F01C06E3F0F8FFFFF8F24C
:1041B000E3061CF0000000000000FFFFFFFFFFFF10
:1041C000E0808080808080800000000000FF00F898
:1041D0008F70FFFFFFFFFFFFFFFFFFFFFF708FF8F4
:1041E00000000000000000C0F0FE7F0F030080C050
:1041F000606060C0800000FFFF4041474C58515351
:1042000053535351584C474140404040404043472E
:104210004F5F5F5F5F5F5F5F5F5F5F5F4F4040402B
:1042200040FF404043464D5B575757575757575BE2
:104230004D464340404040404C484E4F4F41404027
:10424000404043474C4C4C47434040FFFF00000078
:10425000000000000000000000000000000000005E
:10426000000000000000000000000000000000004E
:104270000000000000FF000000000000000000003F
:10428000000000000000000000000000000000002E
:10429000000000000000000000000000000000FF1F
:1042A000FF8080808080808080808080808080808F
:1042B00080808080808080808080808080808080FE
:1042C000808080808080808080FF8080808080806F
:1042D00080808080808080808080808080808080DE
:1042E00080808080808080808080808080808080CE
:1042F000808080FF0000000000000000000000003F
:1043000000000000000080C0E0F0F8F8FCFCFEFEB9
:10431000FFFFFFFFFFFFFFFFFFFFFFCFCFCFCFCF9D
:10432000CFCFDF9FDFDFBF3F7FFFFFFFFEFEFEFE41
:10433000FEFEFCFCF8F0C0800000F1FFFF00000072
:10434000000000000000000000000000000000006D
:104350000000000000000000E0FF7F7FFFFF7F3FC4
:104360001F1F0F0707470303030F1F0D0101010163
:1043700001011F1F1F1F0B0B0F07070F0F1E1C3DF7
:1043800079F3E3C7EF7F7FFFFFFFFFFFFFFEFFFF34
:104390000F0000000000000000000000000000000E
:1043A0000000000000000000000000C0FFFFFF81CF
:1043B000030080A0A0C0C0E0F0180C0400002000A2
:1043C000000000081CFCFCFCF8F0E0C0810000804C
:1043D000800000400000030F1FFFFDFFFFFFFFFFF5
:1043E000FFFFFFFF9E8C84828080808000000000A1
:1043F000000000000000000000000000000000FDC0
:10440000FFFFBFFFFFF0F0E2C21A3F3F3F7EE0E058
:10441000E0F0F0F0F0E0E064269FBFFFFFFFFF7FD9
:104420007F5A60C080C0C0C0E0F0F8FCFFFFFFFF13
:10443000FFFFFFFFFFFFFFFFC101010101010101BC
:1044400001010181000000000000000000000000E8
:1044500000000C0F0F0F0F0F0F0F1F1F1F1F1E3C11
:104460003830210303030303034341616171717118
:104470007178F8FCFEFFFFFFFFFFFFFFFFFFFFFF6C
:10448000FFFFFFFFFFFFFFFFFFFFFFFF3F000000F9
:10449000000000000000000000000000000000001C
:1044A000000000000000000000000000000000000C
:1044B00000000000000000000000000000000000FC
:1044C00000000000000000000000000000000000EC
:1044D00000000000000000000000000000000000DC
:1044E000000000000000000000000000381870C04C
:1044F00040408000808000030301003038080080C5
:104500000000040000000000C04080000000000027
:104510000000000000000000000000080000000093
:104520000000000C0E0001000000E02060201C1CB8
:104530001C0E030303010000000000000000000047
:104540000000000000000003030102000000000062
:1045500000000003000000000000C0BE8000010059
:104560000000008080C0808080C0C0C080E070708B
:10457000F8F8FCFCFC7C1C0C0C60F0E0C0800040F7
:10458000808020206060101030100C0C181C00007F
:1045900000000000000000008000C0C8802060C053
:1045A000C8E0C3E820101010704000080800001494
:1045B0001FFE0281403E7FA7E26262A37F36BFF802
:1045C000000000F8FFFFFFFFFFFFFEFEE0000F4FBF
:1045D00047432020404000204040202040603030B1
:1045E000E060000000000000000000000001100377
:1045F00003050505030301018122140408060000D8
:104600000001100CFC3F00830000001800000000B7
:1046100000806018068280000FFFFFFFFFFFFF7F12
:10462000000808002020302040406040808040C0CA
:10463000808080800000000000000000000000007A
:104640000000000000C0C0000000080601000000DB
:1046500000800000000000FC09008001000002064C
:1046600006060E1E1E3F3F3F3F7F7FE08099FFFF03
:10467000FF7F1F1E0000040000000070400040800B
:104680000000800001010001070700000000000099
:10469000E01010201C0A0E0E0001010000E0E0E016
:1046A0000008000800000000800000000302000075
:1046B000000000000000800000000000000000007A
:1046C0000021010181800000000000300000008016
:1046D0000000000003070307040C040C78780000B6
:1046E00000000000FFFFFFFFFFFFFFC71FBF7FFFAE
:1046F000FFFFFFFFFFFF7FFFFFFFBF3FBFBFBF7F8A
:104700003F3FBF3F3F3F5F5F5F5F5F5F5FDFDFDF79
:10471000DFDF5F7FBFCFCFF7FFFFFFFFFFFFFFFFB1
:10472000FFFFFFFFFFFFFFFFFFFFFFFFFFFFFFFF99
:10473000FFFFFFFFFFFFFFFFFFFFFFFFFFFFFFFF89
:10474000FCF1C69C7BF7EFDF9FBF7F3FAED0D9E582
:10475000E0E3FFFBC70EFCF8F0E2C282E2E2E3E333
:10476000E3E5E1EBEACACBCB8B8B0B2B2B3BBBBB43
:10477000DBDBEDE5F3F8FEFFFFFFFFFFFFFFFFFFD1
:10478000FFFFFFFFFFFFFFFFFFFFFFFFFFFFFFFF39
:10479000FFFFFFFF7F7FBFDFCFE6F97DEDEEE7870D
:1047A000DBEBFFF7F7FFFFFFFFFEFFFFFFFFFFFF62
:1047B000F7FFEF1F3FFFFFFFFFFFFFFFFFFFFFFFC1
:1047C000FEFEFCF8F2F1E1C585050585A5A7D5D566
:1047D000DDEDF5F5FAFCFFFFFFFFFFFFFFFFFFFF39
:1047E000FFFFFFFF7FC7F95CAE6FAFCFFF7D2E17D6
:1047F000576373FBABA9B9C3737FFFBF3F7F7F3F95
:104800003FBF9F1F0FEFE7F0FCFFFF1FFFFFFFFF02
:10481000FFFFFFFFFFFFFFFFFFFFFFFFFFFFFCF8B2
:10482000F2C0058589ABABBBDBDBDBEBEBF3F3FB6A
:10483000FFFFFFFFFFFFFFF1E0E7CF9EB7777B7D34
:104840003C0EE7F7FBFDFDFFFEFFFFFFFFFFFFFF55
:10485000FFFFFF7F3F0F0320BC9F9F8FC7C3C0E4B4
:10486000E7E3E3E3F3F3F1F1F1F1F9F9F9F9F9F938
:10487000F9F9F9F1F3F3E6E1CFFFFFFFFFFFFFFFE7
:10488000FFFFFFFFFFFFFFFFFFFFFFFFFFFFFFFF38
:10489000FFFFFFFFFFFFFFFFFFFFFFFFFFFFFFFF28
:1048A000FFFFFFFFFFFFFDFEFEBEFFFFFFFFFFFF5D
:1048B000FFFFFFFFFFBFFFFFFFFFFFFFBFFFFFFF88
:1048C000FFFFFFFFFFFFFFFFFFFFFFFFFFFFFFFFF8
:1048D000FFFFFFFFFFFFFFFFFFFFFFFFFFFFFFFFE8
:1048E000FFFFFFFFFFFFFFFFFFFFFFFFFFFF07F1DE
:1048F000FCFEFEFCF107FFFFFFFFFFFFFFFFFFFFD6
:10490000FFFFFFFFFF0000FFFFFFFFFFFFFFFFFFB5
:10491000FFFFFFFF7F1FCFE3F1E3CF1F7FFFFFFF0D
:10492000FFFFFFFFFFFFFDFDDDDD0101FFFFFFFFDB
:10493000FFFFFFFFFFFFFFFFFFFFFFFFFFFFFFFF87
:10494000FF7F00FFFF0101FFFF007FFFFFFFFFFF71
:10495000FFFFFFFFFFFFFFFFFF0000FFFFFFFFFF65
:10496000FFFFFFFFFF1FC7311C1F1F1F1F1F1F1F40
:104970001C31C71FFFFFFFFFFFFF9F9F9D9D000092
:10498000FFFFFFFFFFFFFFFFFFFFFFFFFFFFFFFF37
:10499000FFFFFF8338FEC7830100000183C7FE3895
:1049A00083FFFFFFFFFFFFFFFFFFFFFFFF0000FF91
:1049B000FFFFFFFFFFFFFFFFC11C6380000000003F
:1049C000000000000080631CC1FFFFFFFFFFFFFF2E
:1049D000BBBB0000FFFFFFFFFFFFFFFFFFFFFFFF6D
:1049E000FFFFFFFFFFFFFFFFFEFCF9FBFBFBFBFBF5
:1049F000FBF9FCFEFFFFFFFFFFFFFFFFFFFFFFFFD5
:104A0000FF0000FFFFFFFFFFFFFFFFFFFFFFFEFCB8
:104A1000F9FAFAFAFAFAFAFAF9FCFEFFFFFFFFFFD9
:104A2000FFFFFBFBFBFBF8F8FFFFFFFFFFFFFFFFB4
:104A3000FFFFFFFFFFFFFFFFFFFFFFFFFFFFFFFF86
:104A4000FFFFFFFFFFFFFFFFFFFFFFFFFFFFFFFF76
:104A5000FFFFFFFFFF0000FFFFFFFFFFFFFFFFFF64
:104A6000FFFFFFFFFFFFFFFFFFFFFFFFFFFFFFFF56
:104A7000FFFFFFFFFFFFFFFFFFFFFFFFFFFFFFFF46
:104A8000FFFFFFFFFFFFFFFFFFFFFFFFFFFFFFFF36
:104A9000FFFFFFFFFFFFFFFFFFFFFFFFFFFFFFFF26
:104AA000FFFFFFFFFFFFFFFFFF0000FFFFFFFFFF14
:104AB000FFFFFFFFFFFFFFFFFFFFFFFFFFFFFFFF06
:104AC000FFFFFFFFFFFFFFFFFFFFFFFFFFFFFFFFF6
:104AD000FFFFFFFF25642E0025640000232D302BEF
:104AE0002000686C4C0065666745464700303132EF
:104AF0003334353637383941424344454600303146
:104B000032333435363738396162636465660000A4
:044B10003101000867
:044B14000D01000887
:104B180001000000100000000024F4001000002034
:104B2800000000000000000000000000000000007D
:104B3800000000000000000000000000000000006D
:104B4800000000000000000000000000000000005D
:104B5800000000000000000000000000000000004D
:104B6800000000000000000000000000000000003D
:104B7800000000000000000000000000000000002D
:0400000508001A31A4
:00000001FF
